:100000000C943E000C945B000C945B000C945B0021
:100010000C945B000C945B000C945B000C945B00F4
:100020000C945B000C945B000C945B000C945B00E4
:100030000C945B000C945B000C945B000C94F3003C
:100040000C945B000C945B000C945B000C945B00C4
:100050000C945B000C945B000C945B000C945B00B4
:100060000C945B000C945B000C945B000C945B00A4
:100070000C9409010C945B000C945B0011241FBECE
:10008000CFEFD0E1DEBFCDBF11E0A0E0B1E0E6EA06
:10009000F2E002C005900D92A030B107D9F721E03F
:1000A000A0E0B1E001C01D92A530B207E1F70E94C7
:1000B0007E000C9451010C9400009091C80095FFB3
:1000C000FCCF8093CE00089580E18AB98BB983E29A
:1000D0008093800089E18093810084E690E0909392
:1000E00089008093880081E080936F00089581E407
:1000F00080937C0087E880937A00089586E790E0FB
:100100009093CD008093CC0088E98093C90086E06D
:100110008093CA0078940E9464000E947700FFCF09
:1001200018B817B88CE390E0909301018093000118
:100130002AEF47E28BE0215040408040E1F700C0C9
:1001400000C020E030E012C0EAE7F0E08081806487
:10015000808380917A0084FFFCCF80917800909119
:100160007900893C914010F421E030E021153105FF
:1001700059F3109201011092000187E30E945D0083
:10018000089588E088B987B984E690E090930101EA
:10019000809300012AEF47E28BE0215040408040ED
:1001A000E1F700C000C020E030E012C0EAE7F0E074
:1001B00080818064808380917A0084FFFCCF80916D
:1001C0007800909179008E33924010F021E030E079
:1001D0002115310559F3109201011092000187E3B6
:1001E0000E945D0008951F920F920FB60F92112486
:1001F0008F939F93809100019091010190938B00C8
:1002000080938A009F918F910F900FBE0F901F9047
:1002100018951F920F920FB60F9211242F933F93B0
:100220004F935F936F937F938F939F93AF93BF93FE
:10023000EF93FF938091CE00809302017894809198
:100240000201863319F40E9490001AC080910201C5
:10025000883319F40E94C10013C0809102018133D8
:1002600039F484E690E0909301018093000108C086
:1002700080910201823321F4109201011092000159
:10028000FF91EF91BF91AF919F918F917F916F916E
:100290005F914F913F912F910F900FBE0F901F9044
:0602A0001895F894FFCF51
:00000001FF
