S01C000041746D6567613634345041436F6D5363726970742E73726563F6
S11300000C943E000C945B000C945B000C945B001D
S11300100C945B000C945B000C945B000C945B00F0
S11300200C945B000C945B000C945B000C945B00E0
S11300300C945B000C945B000C945B000C94F1003A
S11300400C945B000C945B000C945B000C945B00C0
S11300500C945B000C945B000C945B000C945B00B0
S11300600C945B000C945B000C945B000C945B00A0
S11300700C9407010C945B000C945B0011241FBECC
S1130080CFEFD0E1DEBFCDBF11E0A0E0B1E0EAEFF9
S1130090F2E002C005900D92A030B107D9F721E03B
S11300A0A0E0B1E001C01D92A530B207E1F70E94C3
S11300B07E000C947B010C9400009091C80095FF85
S11300C0FCCF8093CE00089580E18AB98BB983E296
S11300D08093800089E18093810084E690E090938E
S11300E089008093880081E080936F00089581E403
S11300F080937C0082E880937A00089587E790E0FB
S11301009093CD008093CC0088E98093C90086E069
S11301108093CA0078940E9464000E947700FFCF05
S113012018B817B88CE390E0909301018093000114
S113013028EF4BEB80E1215040408040E1F700C0C4
S113014020E030E012C0EAE7F0E080818064808340
S113015080917A0084FFFCCF80917800909179009F
S11301608E3C914010F421E030E02115310559F323
S1130170109201011092000187E30E945D0008952E
S113018088E088B987B984E690E090930101809370
S1130190000128EF4BEB80E1215040408040E1F723
S11301A000C020E030E012C0EAE7F0E08081806423
S11301B0808380917A0084FFFCCF809178009091B5
S11301C079008A33924010F021E030E021153105A6
S11301D059F3109201011092000187E30E945D001F
S11301E008951F920F920FB60F9211248F939F932D
S11301F0809100019091010190938B0080938A007B
S11302009F918F910F900FBE0F901F9018951F9282
S11302100F920FB60F9211242F933F934F935F9336
S11302206F937F938F939F93AF93BF93EF93FF93BA
S11302308091CE00809302017894809102018633EC
S113024019F40E94900046C080910201883319F489
S11302500E94C0003FC080910201813329F41092B2
S113026001011092000136C080910201823339F4F9
S113027084E190E090930101809300012BC0809170
S11302800201833339F488E290E090930101809372
S1130290000120C080910201843339F48CE390E0A2
S11302A0909301018093000115C080910201853370
S11302B039F480E590E090930101809300010AC035
S11302C080910201873331F48FEF93E09093010121
S11302D080930001FF91EF91BF91AF919F918F9116
S11302E07F916F915F914F913F912F910F900FBE2E
S10D02F00F901F901895F894FFCFAB
S9030000FC
