S01C000041746D6567613634345041436F6D5363726970742E73726563F6
S11300000C943E000C945B000C945B000C945B001D
S11300100C945B000C945B000C945B000C945B00F0
S11300200C945B000C945B000C945B000C945B00E0
S11300300C945B000C945B000C945B000C94ED003E
S11300400C945B000C945B000C945B000C945B00C0
S11300500C945B000C945B000C945B000C945B00B0
S11300600C945B000C945B000C945B000C945B00A0
S11300700C9403010C945B000C945B0011241FBED0
S1130080CFEFD0E1DEBFCDBF11E0A0E0B1E0E4E707
S1130090F2E002C005900D92A030B107D9F721E03B
S11300A0A0E0B1E001C01D92A530B207E1F70E94C3
S11300B077000C9438010C9400009091C80095FFCF
S11300C0FCCF8093CE00089580E18AB98BB98BE28E
S11300D08093800081E08093810080936F00089575
S11300E081E480937C0082E880937A00089587E716
S11300F090E09093CD008093CC0080E88093C8007A
S113010088E98093C90086E08093CA0078940E94AD
S113011064000E947000FFCF18B817B88FEF91E009
S1130120909301018093000128EF4BEB80E1215073
S113013040408040E1F700C020E030E012C0EAE730
S1130140F0E080818064808380917A0084FFFCCF1A
S113015080917800909179008E3C914010F421E0D8
S113016030E02115310559F310920101109200017C
S113017087E30E945D00089588E088B987B98FEF0E
S113018091E0909301018093000128EF4BEB80E113
S1130190215040408040E1F700C020E030E012C030
S11301A0EAE7F0E080818064808380917A0084FFB4
S11301B0FCCF80917800909179008A33924010F0BE
S11301C021E030E02115310559F31092010110921C
S11301D0000187E30E945D0008951F920F920FB6FD
S11301E00F9211248F939F938091000190910101AC
S11301F090938B0080938A009F918F910F900FBEF4
S11302000F901F9018951F920F920FB60F92112402
S11302102F933F934F935F936F937F938F939F930A
S1130220AF93BF93EF93FF938091CE00809302012D
S113023080910201863321F478940E948C0007C0D7
S113024080910201883319F478940E94BC00FF91D4
S1130250EF91BF91AF919F918F917F916F915F913A
S11302604F913F912F910F900FBE0F901F901895B3
S1070270F894FFCF2C
S9030000FC
