:100000000C943E000C945B000C945B000C945B0021
:100010000C945B000C945B000C945B000C945B00F4
:100020000C945B000C945B000C945B000C945B00E4
:100030000C945B000C945B000C945B000C940A0124
:100040000C945B000C945B000C945B000C945B00C4
:100050000C945B000C945B000C945B000C945B00B4
:100060000C945B000C945B000C945B000C945B00A4
:100070000C945B000C945B000C945B0011241FBE7D
:10008000CFEFD0E1DEBFCDBF11E0A0E0B1E0E8E20C
:10009000F3E002C005900D92A430B107D9F721E03A
:1000A000A4E0B1E001C01D92A530B207E1F70E94C3
:1000B000DA000C9492010C9400009091C80095FF16
:1000C000FCCF8093CE0008958091C8008823E4F788
:1000D0008091CE00089580E18AB983E28093800008
:1000E00081E080936F00789480938100089581E48B
:1000F00080937C00EAE7F0E085EA808310927B0041
:10010000808180648083089580E18AB98BB918B8B2
:1001100080E090ECAFE7B4E480930001909301019C
:10012000A0930201B09303012FEF8FE594E52150D6
:1001300080409040E1F700C00000809178009091ED
:100140007900803D9140C8F71092000110920101A2
:10015000109202011092030187E30E945D000E9449
:1001600064008093040180E090ECAFE7B4E48093F6
:10017000000190930101A0930201B093030188E074
:1001800088B987B98FEF9FE524E5815090402040E2
:10019000E1F700C0000080917800909179008533EC
:1001A0009240C8F31AB81BB818B817B887E30E9472
:1001B0005D00089587E790E09093CD008093CC0098
:1001C00088E18093C9000E946B000E9477001AB8F2
:1001D0001BB80E946400C82F823371F480E090EC59
:1001E000AFE7B4E48093000190930101A093020172
:1001F000B093030180E18AB9C33309F41AB8DC2F44
:10020000C63311F40E948400D83319F78C2F0E9452
:100210005D00DFCF1F920F920FB60F9211242F9324
:100220003F934F935F936F937F938F939F93AF937E
:10023000BF93EF93FF936091000170910101809152
:100240000201909103010E943A0170938B00609328
:100250008A00FF91EF91BF91AF919F918F917F9114
:100260006F915F914F913F912F910F900FBE0F9023
:100270001F9018950E94710188F09F5798F0B92F30
:100280009927B751B0F0E1F0660F771F881F991FCB
:100290001AF0BA95C9F714C0B13091F00E948B01E1
:1002A000B1E008950C948B01672F782F8827B85FF1
:1002B00039F0B93FCCF3869577956795B395D9F723
:1002C0003EF490958095709561957F4F8F4F9F4F2D
:1002D000089557FD9058440F551F59F05F3F71F036
:1002E0004795880F97FB991F61F09F3F79F087959D
:1002F0000895121613061406551FF2CF4695F1DF26
:1003000008C0161617061806991FF1CF86957105B5
:10031000610508940895E894BB2766277727CB01E9
:0803200097F90895F894FFCF4E
:0403280000C07F444E
:00000001FF
