:100000000C943E000C945B000C945B000C945B0021
:100010000C945B000C945B000C945B000C945B00F4
:100020000C945B000C945B000C945B000C945B00E4
:100030000C945B000C945B000C945B000C942A0104
:100040000C945B000C945B000C945B000C945B00C4
:100050000C945B000C945B000C945B000C945B00B4
:100060000C945B000C945B000C945B000C945B00A4
:100070000C945B000C945B000C945B0011241FBE7D
:10008000CFEFD0E1DEBFCDBF11E0A0E0B1E0E8E608
:10009000F3E002C005900D92A430B107D9F721E03A
:1000A000A4E0B1E001C01D92A530B207E1F70E94C3
:1000B000F9000C94B2010C9400009091C80095FFD7
:1000C000FCCF8093CE0008958091C8008823E4F788
:1000D0008091CE00089580E18AB981E2809380000A
:1000E00081E080936F0080938100089581E6809382
:1000F0007C0085EA80937A0010927B000895CF936C
:1001000080E18AB98BB918B817B880E090ECAFE7F6
:10011000B4E48093000190930101A0930201B09395
:1001200003012FEF8FE594E5215080409040E1F7E7
:1001300000C00000C0E012C0EAE7F0E08081806407
:10014000808380917A0084FFFCCF8091790084378E
:1001500028F4809179000E945D00C1E0CC2361F316
:1001600010920001109201011092020110920301FD
:1001700087E30E945D000E9464008093040188E090
:1001800088B987B980E090ECAFE7B4E480930001D0
:1001900090930101A0930201B09303012FEF8FE52B
:1001A00094E5215080409040E1F700C0000090E0CD
:1001B00012C0EAE7F0E080818064808380917A0059
:1001C00084FFFCCF80917900803928F080917900FC
:1001D0000E945D009C2F992361F385EA80937A0049
:1001E0001AB81BB818B817B887E30E945D00CF9102
:1001F0000895789487E790E09093CD008093CC00A9
:1002000088E18093C9000E946B000E9476001AB8B2
:100210001BB80E946400C82F823371F480E090EC18
:10022000AFE7B4E48093000190930101A093020131
:10023000B093030180E18AB9C33309F41AB8DC2F03
:10024000C63311F40E947F00D83319F78C2F0E9417
:100250005D00DFCF1F920F920FB60F9211242F93E4
:100260003F934F935F936F937F938F939F93AF933E
:10027000BF93EF93FF936091000170910101809112
:100280000201909103010E945A0170938B006093C8
:100290008A00FF91EF91BF91AF919F918F917F91D4
:1002A0006F915F914F913F912F910F900FBE0F90E3
:1002B0001F9018950E94910188F09F5798F0B92FD0
:1002C0009927B751B0F0E1F0660F771F881F991F8B
:1002D0001AF0BA95C9F714C0B13091F00E94AB0181
:1002E000B1E008950C94AB01672F782F8827B85F91
:1002F00039F0B93FCCF3869577956795B395D9F7E3
:100300003EF490958095709561957F4F8F4F9F4FEC
:10031000089557FD9058440F551F59F05F3F71F0F5
:100320004795880F97FB991F61F09F3F79F087955C
:100330000895121613061406551FF2CF4695F1DFE5
:1003400008C0161617061806991FF1CF8695710575
:10035000610508940895E894BB2766277727CB01A9
:0803600097F90895F894FFCF0E
:0403680000C07F440E
:00000001FF
