S01700004763634170706C69636174696F6E322E737265635A
S11300000C943E000C9450000C9450000C9450003E
S11300100C9450000C9450000C9450000C9450001C
S11300200C9450000C9450000C9450000C9450000C
S11300300C9450000C9450000C9450000C94B80094
S11300400C9450000C9450000C9450000C945000EC
S11300500C9450000C9450000C9450000C945000DC
S11300600C9450000C9450000C9450000C945000CC
S11300700C9450000C9450000C94500011241FBE9A
S1130080CFEFD0E1DEBFCDBF21E0A0E0B1E001C001
S11300901D92A430B207E1F70E9460000C94400165
S11300A00C9400009091C80095FFFCCF8093CE0083
S11300B008958091C8008823E4F78091CE000895C4
S11300C087E78093CC0088E18093C9000E9459009F
S11300D0C82FD82F833711F40E945200C03319F46B
S11300E08C2F0E945200C13331F480E28AB98BB95B
S11300F08C2F0E945200D23329F41AB81BB88C2FCB
S11301000E945200D33331F480E18AB98BB98C2F29
S11301100E945200D43329F41AB81BB88C2F0E94C1
S11301205200DC2FC53319F48C2F0E945200D633B1
S113013019F48C2F0E945200D73319F48C2F0E948B
S11301405200D83319F48C2F0E945200D93309F08D
S1130150BDCF2FEF3FEB84ED91E021503040804044
S11301609040D9F700C000008C2F0E945200AECFFF
S11301701F920F920FB60F9211242F933F934F9318
S11301805F936F937F938F939F93AF93BF93EF93FB
S1130190FF9360910001709101018091020190919F
S11301A003010E94E80070938B0060938A00FF9122
S11301B0EF91BF91AF919F918F917F916F915F91DB
S11301C04F913F912F910F900FBE0F901F90189554
S11301D00E941F0188F09F5798F0B92F9927B751B3
S11301E0B0F0E1F0660F771F881F991F1AF0BA95D7
S11301F0C9F714C0B13091F00E943901B1E00895FB
S11302000C943901672F782F8827B85F39F0B93FEC
S1130210CCF3869577956795B395D9F73EF4909589
S11302208095709561957F4F8F4F9F4F089557FD2F
S11302309058440F551F59F05F3F71F04795880F50
S113024097FB991F61F09F3F79F0879508951216E7
S113025013061406551FF2CF4695F1DF08C0161693
S113026017061806991FF1CF869571056105089444
S11302700895E894BB2766277727CB0197F908955B
S1070280F894FFCF1C
S9030000FC
