S01700004763634170706C69636174696F6E322E737265635A
S11300000C943E000C9450000C9450000C9450003E
S11300100C9450000C9450000C9450000C9450001C
S11300200C9450000C9450000C9450000C9450000C
S11300300C9450000C9450000C9450000C94230128
S11300400C9450000C9450000C9450000C945000EC
S11300500C9450000C9450000C9450000C945000DC
S11300600C9450000C9450000C9450000C945000CC
S11300700C9450000C9450000C94500011241FBE9A
S1130080CFEFD0E1DEBFCDBF21E0A0E0B1E001C001
S11300901D92A530B207E1F70E94C7000C944002FC
S11300A00C9400009091C80095FFFCCF8093CE0083
S11300B008958091C8008823E4F78091CE000895C4
S11300C080E18AB983E28093800081E080936F00AD
S11300D078948093810081E680937C00EAE7F0E0E5
S11300E083EA808310927B008081806480830895FA
S11300F080E18AB98BB980E090ECAFE7B4E48093F7
S1130100000190930101A0930201B09303012FEF2A
S11301108FEB98EA215080409040E1F700C0000046
S113012004C0809179000E94520080917900823746
S1130130C0F720E030E040E05FE36091000170919F
S1130140010180910201909103010E94AB0160932F
S1130150000170930101809302019093030187E3EE
S11301600E9452000E9459008093040188E088B9DB
S113017087B92FEF8FEB98EA215080409040E1F748
S113018000C000001AB81BB818B817B8089587E75C
S11301908093CC0088E18093C9000E9460000E9493
S11301A05900C82FD82F833711F40E945200C0334E
S11301B019F48C2F0E945200C13331F480E28AB9C1
S11301C08BB98C2F0E945200D23329F41AB81BB871
S11301D08C2F0E945200D33331F480E18AB98BB959
S11301E08C2F0E945200D43329F41AB81BB88C2FD8
S11301F00E945200DC2FC53319F48C2F0E94520048
S1130200D63329F40E9478008C2F0E945200D733F1
S113021019F48C2F0E945200D83319F48C2F0E94A9
S11302205200D93309F0BBCF2FEF3FEB84ED91E0BF
S11302302150304080409040D9F700C000008C2FFE
S11302400E945200ACCF1F920F920FB60F9211244E
S11302502F933F934F935F936F937F938F939F93CA
S1130260AF93BF93EF93FF936091000170910101ED
S113027080910201909103010E94530170938B00BD
S113028060938A00FF91EF91BF91AF919F918F91FD
S11302907F916F915F914F913F912F910F900FBE7E
S11302A00F901F9018950E948A0188F09F5798F02C
S11302B0B92F9927B751B0F0E1F0660F771F881F67
S11302C0991F1AF0BA95C9F714C0B13091F00E9481
S11302D0A401B1E008950C94A401672F782F882716
S11302E0B85F39F0B93FCCF3869577956795B395A8
S11302F0D9F73EF490958095709561957F4F8F4F17
S11303009F4F089557FD9058440F551F59F05F3F74
S113031071F04795880F97FB991F61F09F3F79F023
S113032087950895121613061406551FF2CF4695A5
S1130330F1DF08C0161617061806991FF1CF869527
S11303407105610508940895E894BB27662777270B
S1130350CB0197F908950E94BE010C942F020E94CC
S1130360210238F00E94280220F0952311F00C9409
S113037018020C941E0211240C94A5010E948201FF
S113038070F3959FC1F3950F50E0551F629FF001E4
S1130390729FBB27F00DB11D639FAA27F00DB11DFD
S11303A0AA1F649F6627B00DA11D661F829F222786
S11303B0B00DA11D621F739FB00DA11D621F839F0D
S11303C0A00D611D221F749F3327A00D611D231FE3
S11303D0849F600D211D822F762F6A2F11249F5731
S11303E050409AF0F1F088234AF0EE0FFF1FBB1F34
S11303F0661F771F881F91505040A9F79E3F5105F3
S113040080F00C9418020C94A5015F3FE4F3983E2D
S1130410D4F3869577956795B795F795E7959F5F9C
S1130420C1F7FE2B880F911D9695879597F908952E
S113043097F99F6780E870E060E008959FEF80EC93
S1130440089500240A941616170618060906089536
S113045000240A9412161306140605060895092E9C
S11304600394000C11F4882352F0BB0F40F4BF2B0B
S113047011F460FF04C06F5F7F4F8F4F9F4F08954B
S1070480F894FFCF1A
S9030000FC
