:100000000C943E000C945B000C945B000C945B0021
:100010000C945B000C945B000C945B000C945B00F4
:100020000C945B000C945B000C945B000C945B00E4
:100030000C945B000C945B000C945B000C943001FE
:100040000C945B000C945B000C945B000C945B00C4
:100050000C945B000C945B000C945B000C945B00B4
:100060000C945B000C945B000C945B000C945B00A4
:100070000C945B000C945B000C945B0011241FBE7D
:10008000CFEFD0E1DEBFCDBF11E0A0E0B1E0E4E70B
:10009000F3E002C005900D92A430B107D9F721E03A
:1000A000A4E0B1E001C01D92A530B207E1F70E94C3
:1000B000D2000C94B8010C9400009091C80095FFF8
:1000C000FCCF8093CE0008958091C8008823E4F788
:1000D0008091CE00089580E18AB983E28093800008
:1000E00081E080936F0078948093810081E6809313
:1000F0007C00EAE7F0E083EA808310927B00808155
:1001000080648083089580E18AB98BB980E090ECA7
:10011000AFE7B4E48093000190930101A093020142
:10012000B09303012FEF8FE398E32150804090407C
:10013000E1F700C00000809179008237E0F710926B
:10014000000110920101109202011092030187E355
:100150000E945D000E9464008093040180E090ECA6
:10016000AFE7B4E48093000190930101A0930201F2
:10017000B093030188E088B987B92FEF8FE398E344
:10018000215080409040E1F700C00000809179004C
:100190008D38E0F31AB81BB818B817B887E30E9477
:1001A0005D00089587E78093CC0088E18093C900C3
:1001B0000E946B001AB81BB80E946400C82FD82F89
:1001C000833711F40E945D00C03319F48C2F0E9414
:1001D0005D00C13331F480E28AB98BB98C2F0E9463
:1001E0005D00D23329F41AB81BB88C2F0E945D0031
:1001F000D33331F480E18AB98BB98C2F0E945D0032
:10020000D43329F41AB81BB88C2F0E945D00DC2F60
:10021000C53319F48C2F0E945D00D63311F40E946F
:100220008300D73331F482E30E945D008C2F0E945B
:100230005D00D83319F48C2F0E945D00D93309F08A
:10024000BBCF2FEF3FEB84ED91E021503040804059
:100250009040D9F700C000008C2F0E945D00ACCF09
:100260001F920F920FB60F9211242F933F934F932B
:100270005F936F937F938F939F93AF93BF93EF930E
:10028000FF936091000170910101809102019091B2
:1002900003010E94600170938B0060938A00FF91BC
:1002A000EF91BF91AF919F918F917F916F915F91EE
:1002B0004F913F912F910F900FBE0F901F90189567
:1002C0000E94970188F09F5798F0B92F9927B7514E
:1002D000B0F0E1F0660F771F881F991F1AF0BA95EA
:1002E000C9F714C0B13091F00E94B101B1E0089596
:1002F0000C94B101672F782F8827B85F39F0B93F88
:10030000CCF3869577956795B395D9F73EF490959C
:100310008095709561957F4F8F4F9F4F089557FD42
:100320009058440F551F59F05F3F71F04795880F63
:1003300097FB991F61F09F3F79F0879508951216FA
:1003400013061406551FF2CF4695F1DF08C01616A6
:1003500017061806991FF1CF869571056105089457
:100360000895E894BB2766277727CB0197F908956E
:04037000F894FFCF2F
:0403740000C07F4402
:00000001FF
