S01700004763634170706C69636174696F6E312E737265635B
S11300000C943E000C9450000C9450000C9450003E
S11300100C9450000C9450000C9450000C9450001C
S11300200C9450000C9450000C9450000C9450000C
S11300300C9450000C9450000C9450000C949000BC
S11300400C9450000C9450000C9450000C945000EC
S11300500C9450000C9450000C9450000C945000DC
S11300600C9450000C9450000C9450000C945000CC
S11300700C9450000C9450000C94500011241FBE9A
S1130080CFEFD0E1DEBFCDBF21E0A0E0B1E001C001
S11300901D92A430B207E1F70E9452000C9418019B
S11300A00C94000080E18AB983E28093800081E0AF
S11300B080936F0078948093810081E680937C0024
S11300C0EAE7F0E083EA808310927B008081806419
S11300D0808310920001109201011092020110928B
S11300E003012FEF8FE398E3215080409040E1F724
S11300F000C00000809179008D3758F710920001FC
S11301001092010110920201109203012FEF8FE36C
S113011098E3215080409040E1F700C00000D9CF1F
S11301201F920F920FB60F9211242F933F934F9368
S11301305F936F937F938F939F93AF93BF93EF934B
S1130140FF936091000170910101809102019091EF
S113015003010E94C00070938B0060938A00FF919A
S1130160EF91BF91AF919F918F917F916F915F912B
S11301704F913F912F910F900FBE0F901F901895A4
S11301800E94F70088F09F5798F0B92F9927B7512C
S1130190B0F0E1F0660F771F881F991F1AF0BA9527
S11301A0C9F714C0B13091F00E941101B1E0089573
S11301B00C941101672F782F8827B85F39F0B93F65
S11301C0CCF3869577956795B395D9F73EF49095DA
S11301D08095709561957F4F8F4F9F4F089557FD80
S11301E09058440F551F59F05F3F71F04795880FA1
S11301F097FB991F61F09F3F79F087950895121638
S113020013061406551FF2CF4695F1DF08C01616E3
S113021017061806991FF1CF869571056105089494
S11302200895E894BB2766277727CB0197F90895AB
S1070230F894FFCF6C
S9030000FC
