S01700004763634170706C69636174696F6E322E737265635A
S11300000C943E000C9453000C9453000C94530035
S11300100C9453000C9453000C9453000C94530010
S11300200C9453000C9453000C9453000C94530000
S11300300C9453000C9453000C9453000C945300F0
S11300400C9453000C9453000C9453000C945300E0
S11300500C9453000C9453000C9453000C945300D0
S11300600C9453000C9453000C9453000C945300C0
S11300700C9453000C9453000C94530011241FBE91
S1130080CFEFD0E1DEBFCDBF11E0A0E0B1E0ECEFF7
S1130090F2E002C005900D92A832B107D9F70E9490
S11300A081000C947C010C9400009091C00095FF99
S11300B0FCCF8093C60008958091C0008823E4F7A4
S11300C08091C60008950F931F93CF93DF938C0103
S11300D0C0E0D0E007C0F801EC0FFD1F80810E9452
S11300E055002196F80101900020E9F73197E01BB3
S11300F0F10BCE17DF0778F3DF91CF911F910F91AA
S11301000895CF93DF93CDB7DEB7A8970FB6F894D1
S1130110DEBF0FBECDBF83E38093C40088E180932C
S1130120C10090E1E0E0F1E0DE01119601900D9252
S11301309A95E1F7FE017196DF011D928A95E9F720
S11301400E945C00182F833729F40E9455008AE02E
S11301500E945500103391F4BFEF29E688E1B150B5
S113016020408040E1F700C0000080E70E94550075
S1130170812F0E9455008AE00E945500113391F4AA
S11301809FEFA9E6B8E19150A040B040E1F700C06C
S1130190000080E70E945500812F0E9455008AE0EC
S11301A00E945500123391F42FEF89E698E1215013
S11301B080409040E1F700C0000080E70E945500B5
S11301C0812F0E9455008AE00E9455001333D1F418
S11301D0AFEFB9E628E1A150B0402040E1F700C0FC
S11301E0000080E70E945500CE0101960E94630042
S11301F080E290E00E946300812F0E9455008AE013
S11302000E945500143391F48FEF99E6A8E18150D0
S11302109040A040E1F700C0000080E70E94550034
S1130220812F0E9455008AE00E945500153391F4F5
S1130230BFEF29E688E1B15020408040E1F700C0DB
S1130240000080E70E945500812F0E9455008AE03B
S11302500E945500163391F49FEFA9E6B8E191503E
S1130260A040B040E1F700C0000080E70E945500C4
S1130270812F0E9455008AE00E945500173391F4A3
S11302802FEF89E698E1215080409040E1F700C0CB
S1130290000080E70E945500812F0E9455008AE0EB
S11302A00E945500183391F4AFEFB9E628E1A1504C
S11302B0B0402040E1F700C0000080E70E945500F4
S11302C0812F0E9455008AE00E945500193309F0DD
S11302D037CF8FEF99E6A8E181509040A040E1F735
S11302E000C0000080E70E945500812F0E94550045
S10F02F08AE00E94550024CFF894FFCF50
S11302FC416B73656C206973205374616C696E0077
S113030C00000000000000000000000000000000DD
S10B031C0000000000000000D5
S9030000FC
