:100000000C943E000C9448000C9448000C9448005A
:100010000C9448000C9448000C9448000C94480040
:100020000C9448000C9448000C9448000C94480030
:100030000C9448000C9448000C9448000C94480020
:100040000C9448000C9448000C9448000C94480010
:100050000C9448000C9448000C9448000C94480000
:100060000C9448000C9448000C9448000C944800F0
:100070000C9448000C9448000C94480011241FBEB6
:10008000CFEFD0E1DEBFCDBF0E9485000C94F00021
:100090000C9400009091C80095FFFCCF8093CE0097
:1000A00008958091C8008823E4F78091CE000895D8
:1000B0008AB180628AB98FEF9FEF90938700809317
:1000C00086008FEF9FE39093890080938800E0E89B
:1000D000F0E0808180688083808182608083E1E8B5
:1000E000F0E08081886180838081816080832FEF50
:1000F0003FEB84ED91E02150304080409040D9F7B3
:1001000000C000001AB81BB8089587E78093CC00A0
:1001100088E18093C9000E945100C82FD82F8337EF
:1001200011F40E944A00C03319F48C2F0E944A0037
:10013000C13349F480E28AB98BB980E70E944A0052
:100140008C2F0E944A00D23341F41AB81BB880E7C2
:100150000E944A008C2F0E944A00D33399F480E217
:100160008AB98BB92FEF3FEB84ED91E021503040FD
:1001700080409040D9F700C000001AB81BB88C2FFF
:100180000E944A00DC2FC43329F40E9458008C2FAF
:100190000E944A00D53319F48C2F0E944A00D633AE
:1001A00019F48C2F0E944A00D73319F48C2F0E9427
:1001B0004A00D83319F48C2F0E944A00D93309F031
:1001C000AACF2FEF3FEB84ED91E0215030408040EB
:1001D0009040D9F700C000008C2F0E944A009BCFAE
:0401E000F894FFCFC1
:00000001FF
