S01700004763634170706C69636174696F6E322E737265635A
S11300000C943E000C9448000C9448000C94480056
S11300100C9448000C9448000C9448000C9448003C
S11300200C9448000C9448000C9448000C9448002C
S11300300C9448000C9448000C9448000C9448001C
S11300400C9448000C9448000C9448000C9448000C
S11300500C9448000C9448000C9448000C944800FC
S11300600C9448000C9448000C9448000C944800EC
S11300700C9448000C9448000C94480011241FBEB2
S1130080CFEFD0E1DEBFCDBF0E9458000C94B0008A
S11300900C9400009091C80095FFFCCF8093CE0093
S11300A008958091C8008823E4F78091CE000895D4
S11300B087E78093CC0088E18093C9000E945100B7
S11300C0C82FD82F833711F40E944A00C03319F483
S11300D08C2F0E944A00C13331F480E28AB98BB973
S11300E08C2F0E944A00D23329F41AB81BB88C2FE3
S11300F00E944A00D33331F480E18AB98BB98C2F42
S11301000E944A00D43329F41AB81BB88C2F0E94D9
S11301104A00DC2FC53319F48C2F0E944A00D633D1
S113012019F48C2F0E944A00D73319F48C2F0E94A3
S11301304A00D83319F48C2F0E944A00D93309F0AD
S1130140BDCF2FEF3FEB84ED91E021503040804054
S11301509040D9F700C000008C2F0E944A00AECF17
S1070160F894FFCF3D
S9030000FC
