:100000000C942A000C943F000C943F000C943F0089
:100010000C943F000C943F000C943F000C943F0064
:100020000C943F000C943F000C943F000C943F0054
:100030000C943F000C943F000C943F000C943F0044
:100040000C943F000C943F000C943F000C943F0034
:100050000C943F0011241FBECFE5D8E0DEBFCDBF1A
:1000600010E0A0E6B0E0E6ECF4E002C005900D92EE
:10007000A838B107D9F70E9423010C9461020C94AF
:1000800000005D9BFECF8CB908955F9BFECF8CB1C5
:1000900008950F931F93CF93DF938C01C0E0D0E0BE
:1000A00007C0F801EC0FFD1F80810E9441002196DE
:1000B000F80101900020E9F73197E01BF10BCE1712
:1000C000DF0778F3DF91CF911F910F91089588B3E7
:1000D000816088BB88B3826088BB88B3846088BB3A
:1000E00088B3886088BB88B3806188BB88B380622E
:1000F00088BB88B3806488BB88B3806888BB089558
:1001000088B38E7F88BB88B38D7F88BB88B38B7F95
:1001100088BB88B3877F88BB88B38F7E88BB88B352
:100120008F7B88BB089588B38B7F88BB88B3877F1C
:1001300088BB089588B38E7F88BB88B38D7F88BBCA
:1001400088B3877F88BB88B38F7D88BB88B38F7B5C
:1001500088BB089588B38D7F88BB88B38B7F88BBAD
:1001600088B3877F88BB88B38F7D88BB88B38F7B3C
:1001700088BB089588B38B7F88BB88B3877F88BB93
:1001800088B38F7E88BB88B38F7D88BB089588B382
:100190008D7F88BB88B38B7F88BB88B38F7E88BBFD
:1001A00088B38F7D88BB88B38F7B88BB089588B365
:1001B0008E7F88BB88B38D7F88BB88B38B7F88BBDD
:1001C00088B38F7E88BB88B38F7D88BB88B38F7BD5
:1001D00088BB88B38F7788BB089588B38B7F88BB33
:1001E00088B3877F88BB88B38F7B88BB089588B32B
:1001F0008E7F88BB88B38D7F88BB88B38B7F88BB9D
:1002000088B3877F88BB88B38F7E88BB88B38F7D98
:1002100088BB88B38F7B88BB089588B38D7F88BBEC
:1002200088B38B7F88BB88B3877F88BB88B38F7E7A
:1002300088BB88B38F7D88BB88B38F7B88BB88B32E
:100240008F7788BB0895CF93DF93CDB7DEB7A8979C
:100250000FB6F894DEBF0FBECDBF83E389B998E136
:100260009AB98FEF87BB88B3816088BB88B38260FF
:1002700088BB88B3846088BB88B3886088BB88B338
:10028000806188BB88B3806288BB88B3806488BB88
:1002900088B3806888BB80E1E0E6F0E0DE0111967B
:1002A00001900D928A95E1F7FE017196DF011D9292
:1002B0009A95E9F70E944500182F833741F40E9470
:1002C0006700812F0E9441008AE00E9441001033A4
:1002D000B1F40E9467000E948000BFEF29E688E128
:1002E000B15020408040E1F700C0000080E70E944C
:1002F0004100812F0E9441008AE00E944100113399
:10030000B1F40E9467000E9493009FEFA9E6B8E154
:100310009150A040B040E1F700C0000080E70E948B
:100320004100812F0E9441008AE00E944100123367
:10033000B1F40E9467000E949A002FEF89E698E1CD
:10034000215080409040E1F700C0000080E70E940B
:100350004100812F0E9441008AE00E944100133336
:10036000F1F40E9467000E94AA00AFEFB9E628E10D
:10037000A150B0402040E1F700C0000080E70E949B
:100380004100CE0101960E94490080E290E00E9467
:100390004900812F0E9441008AE00E9441001433ED
:1003A000B1F40E9467000E94BA008FEF99E6A8E1BD
:1003B00081509040A040E1F700C0000080E70E941B
:1003C0004100812F0E9441008AE00E9441001533C4
:1003D000B1F40E9467000E94C700BFEF29E688E1E0
:1003E000B15020408040E1F700C0000080E70E944B
:1003F0004100812F0E9441008AE00E944100163393
:10040000B1F40E9467000E94D7009FEFA9E6B8E10F
:100410009150A040B040E1F700C0000080E70E948A
:100420004100812F0E9441008AE00E944100173361
:10043000B1F40E9467000E94ED002FEF89E698E179
:10044000215080409040E1F700C0000080E70E940A
:100450004100812F0E9441008AE00E944100183330
:10046000B1F40E9467000E94F700AFEFB9E628E1FF
:10047000A150B0402040E1F700C0000080E70E949A
:100480004100812F0E9441008AE00E9441001933FF
:1004900009F010CF0E9467000E940D018FEF99E6CE
:1004A000A8E181509040A040E1F700C0000080E743
:1004B0000E944100812F0E9441008AE00E94410079
:0604C000F9CEF894FFCF15
:1004C600416B73656C206572205374616C696E00B4
:1004D6000000000000000000000000000000000016
:0804E60000000000000000000E
:00000001FF
